:0A00000009C0FECFFDCF18C0FBCFF2
:10000A00FACFF9CFF8CFF7CFF6CFF894EE27ECBBBB
:10001A00E5BF8DE0A2E0ED938A95E9F780E4A0E6DA
:10002A00ED938A95E9F7EFE9EDBFC0E749C0AA93D6
:10003A00EA93EFB7EA930A93E0917000EF5F50D02A
:10004A00B09902C0E1E018C0E0917300E030B1F06D
:10005A00E0917100E03021F4E0917400E03011F099
:10006A0042D004C0E1E0E0937100C19AC29AE0E094
:10007A00E093740035D0E0E0E0937300A091700043
:10008A00A53360F0E0917100E03029F02CD0C298DD
:10009A00E1E0E0937400E0E023D00CC0E0E0B39923
:1000AA00E1E00E2FA09172000A1711F0E0E018D0DB
:1000BA00009372000991E991EFBFE991A99118950E
:1000CA00E6E0E7BBE5E1E8BBE0E0EFBDE5E0E3BF82
:1000DA00E0E0E2BFE6BFE9BDE2E0E9BF7894FFCF26
:1000EA00E09370000895E0E0E0937100C1980895EC
:00000001FF
